:020000040800F2
:1000000000C0002075490008910900089309000804
:1000100095090008970900089909000800000000E8
:100020000000000000000000000000009B09000824
:100030009D090008000000009F090008A1090008B0
:10004000C5490008C5490008C5490008C549000858
:10005000C5490008C5490008C5490008C549000848
:10006000C5490008C5490008C9090008C549000874
:10007000C5490008C5490008C5490008C549000828
:10008000C5490008C5490008D5090008C549000848
:10009000C5490008C5490008C5490008C549000808
:1000A000C5490008C5490008C5490008C5490008F8
:1000B000C54900080000000000000000E509000834
:1000C000F5090008050A0008150A0008250A0008B5
:1000D000C5490008350A0008450A0008C549000856
:1000E000C5490008C54900080000000000000000E4
:1000F0000000000000000000000000000000000000
:1001000000000000C549000800000000C5490008C3
:100110000000000000000000C5490008C5490008B3
:10012000C5490008C5490008C5490008C549000877
:10013000C5490008000000000000000000000000A9
:10014000C5490008C5490008C5490008C549000857
:10015000C5490008C5490008C5490008C549000847
:10016000C5490008C5490008C5490008000000004D
:10017000C5490008C5490008C5490008000000003D
:10018000C5490008C5490008C5490008000000002D
:10019000830730B547D0541E002A3ED0CAB203466A
:1001A00001E0013C39D303F8012B9D07F9D1032C61
:1001B0002CD9CDB205EB05250F2C05EB054535D91E
:1001C000A4F1100222F00F0C03F1100EE6444FEAE6
:1001D000121C1A46C2E90055C2E902551032724596
:1001E000F8D10CF1010214F00C0F03EB021204F031
:1001F0000F0C13D0ACF1040323F0030304331344B6
:1002000042F8045B9342FBD10CF003042CB1C9B259
:100210001C4403F8011BA342FBD130BD64461346C6
:10022000002CF4D1F9E703461446C0E71A46A44669
:10023000E0E700BF70B50F4B0F4DAB42A3EB0506D7
:1002400007D0B610002455F8043B01349847A64265
:10025000F9D804F009FD094D094B5E1BAB424FEA8A
:10026000A60606D0002455F8043B01349847A64260
:10027000F9D870BDD04C0008D04C0008D04C000814
:10028000D44C000853B94AB9002908BF00281CBF44
:100290004FF0FF314FF0FF3000F00CB8ADF1080C1B
:1002A0006DE904CE04F08FFBDDF804E0DDE9022304
:1002B00004B07047704700BF10B5054C237833B9C0
:1002C000044B13B10448AFF300800123237010BD29
:1002D0002800002000000000684C000808B5034B0F
:1002E0001BB103490348AFF3008008BD00000000C4
:1002F0002C000020684C000872B6FEE700B597B0ED
:100300004422002105A8FFF743FF00230093019337
:100310000293039304934FF4007002F05FFD20BB3F
:10032000022305934FF480720892102209920F93D2
:100330001093012211920A2212920722139214930F
:10034000159305A801F000F988B90F230093032342
:10035000019300230293039304930421684601F060
:1003600029FC30B917B05DF804FBFFF7C5FFFFF7B4
:10037000C3FFFFF7C1FF08B501F01CF8FFF7BEFF90
:1003800000F010F800F0B8F800F052F900F07CF935
:1003900000F040FA00F05AFA00F088FB03F07CFA13
:1003A000FEE700002DE9F0418AB000240594069490
:1003B0000794089409944C4BDA6C42F00402DA6416
:1003C000DA6C02F004020192019ADA6C42F08002C7
:1003D000DA64DA6C02F080020292029ADA6C42F07D
:1003E0000102DA64DA6C02F001020392039ADA6C19
:1003F00042F00202DA64DB6C03F002030493049B14
:100400002246B0214FF0904002F010F8374E2246BD
:100410004FF40851304602F009F84FF400530593A9
:100420004FF4041306930794DFF8C88005A94046EB
:1004300001F018FF41F6CE73059303250695079446
:1004400005A9404601F00EFF48F2011305930695F9
:10045000079405A94FF0904001F004FFB0230593E5
:10046000012706970794089405A94FF0904001F0E2
:10047000F9FE402305930694079705A94FF0904095
:1004800001F0F0FE102305934FF488130693022326
:10049000079305A9404601F0E5FE4DF23713059399
:1004A0000695079405A9304601F0DCFE4FF4085389
:1004B000059306970794089405A9304601F0D2FEEB
:1004C000082305930695079405A9094801F0CAFE7B
:1004D000224621460A2002F01DFD0A2002F02AFDD4
:1004E0000AB0BDE8F08100BF0010024000040048DF
:1004F000001C00480008004800B587B000230093A6
:10050000019302930393049305931948194A0260D7
:1005100043608360C36003610422426103764376D3
:100520000122C26180F820308362C36280F83030DB
:10053000436380F8383000F0F5FA90B90E4B009321
:1005400006230193002302937F2203920422049244
:1005500005936946064800F0E7FC28B907B05DF846
:1005600004FBFFF7C9FEE9E7FFF7C6FEF6E700BFA9
:1005700044000020000004500200300410B5A0B078
:10058000044600211B911C911D911E911F91602218
:1005900003A8FFF7FDFD2268224B9A4201D020B04C
:1005A00010BD4FF4804303934FF080531893022300
:1005B00004930122059208220692072207920893CB
:1005C00009934FF080730A9303A801F099FC28BBAC
:1005D000154BDA6C42F40052DA64DA6C02F4005221
:1005E0000192019ADA6C42F00402DA64DB6C03F0E7
:1005F00004030293029B01231B930B231C930024EF
:100600001D941BA9094801F02DFE22462146122007
:1006100002F080FC122002F08DFCC0E7FFF76CFEB8
:10062000D6E700BF00000450001002400008004858
:1006300008B51248124B0360124B436000238360DD
:100640000122C260036143618361C361036201F0FF
:100650004AFF50B90021094802F00AFB40B90021C5
:10066000064802F033FB30B908BDFFF745FEF1E75D
:10067000FFF742FEF3E7FFF73FFEF5E7FC0000203F
:1006800000540040E49CD11008B51248124B03609E
:10069000124B4360002383600122C2600361436107
:1006A0008361C361036201F01EFF50B90021094854
:1006B00002F0DEFA40B90021064802F007FB30B92B
:1006C00008BDFFF719FEF1E7FFF716FEF3E7FFF7A6
:1006D00013FEF5E7A800002000580040E49CD1106C
:1006E00030B5A3B0044600211D911E911F912091A9
:1006F0002191602205A8FFF74BFD2368414A9342F0
:1007000004D0414A93423FD023B030BD40230593EB
:1007100005A801F0F5FB002833D13C4CE36C43F015
:100720000103E364E36C03F001030193019B4FF4C5
:10073000C0631D9312231E9300251F95032320934E
:10074000042321931DA94FF0904001F08BFDA36D70
:1007500043F40013A365A36D03F400130293029BFB
:100760002A4629461F2002F0D5FB1F2002F0E2FB9B
:100770002A462946202002F0CDFB202002F0DAFB99
:10078000C2E7FFF7B9FDC8E78023059305A801F08C
:10079000B7FB002832D11D4CE36C43F00203E36445
:1007A000E36C03F002030393039B4FF440631D9338
:1007B00012231E9300251F950323209304232193C6
:1007C0001DA9134801F04EFDA36D43F48003A365FA
:1007D000A36D03F480030493049B2A462946212039
:1007E00002F098FB212002F0A5FB2A462946222090
:1007F00002F090FB222002F09DFB85E7FFF77CFDD5
:10080000C9E700BF005400400058004000100240FB
:100810000004004808B50B480B4B03604FF4E1336C
:10082000436000238360C36003610C2242618361E3
:10083000C3610362436202F0C2FF00B908BDFFF763
:100840005BFDFBE7D80100200038014008B50B48EC
:100850000B4B03604FF4E133436000238360C360BC
:1008600003610C2242618361C3610362436202F04F
:10087000A6FF00B908BDFFF73FFDFBE750010020D0
:100880000044004010B5A2B0044600211D911E9105
:100890001F9120912191602205A8FFF779FC236820
:1008A000374A934204D0374A934234D022B010BD25
:1008B0000123059305A801F023FB48BB324B1A6EB8
:1008C00042F480421A661A6E02F480420192019A42
:1008D000DA6C42F00202DA64DB6C03F0020302938A
:1008E000029BC0231D9302231E9300241F94032305
:1008F0002093072321931DA9244801F0B3FC22462D
:100900002146252002F006FB252002F013FBCDE74F
:10091000FFF7F2FCD2E70223059305A801F0F0FAF5
:1009200050BB194B9A6D42F400329A659A6D02F4ED
:1009300000320392039ADA6C42F00102DA64DB6C53
:1009400003F001030493049B0C231D9302231E93C5
:1009500000241F9403232093072321931DA94FF004
:10096000904001F07FFC22462146262002F0D2FA78
:10097000262002F0DFFA99E7FFF7BEFCD1E700BFBF
:1009800000380140004400400010024000040048CC
:10099000FEE7FEE7FEE7FEE7FEE7704770477047B9
:1009A00008B5074B1B8813B1013B054A1380054B63
:1009B0001B8813B1013B034A138000F011FD08BDF1
:1009C000E0020020DE02002008B5102001F034FD16
:1009D00008BD000008B5024800F08BF908BD00BF53
:1009E0004400002008B5024801F0E1FD08BD00BF49
:1009F000FC00002008B5024802F0F8F808BD00BF6E
:100A0000FC00002008B5024801F0D1FD08BD00BF80
:100A1000A800002008B5024802F0E8F808BD00BFB1
:100A2000A800002008B5024803F09AFB08BD00BFEB
:100A30007802002008B5024802F0D6FA08BD00BFCF
:100A4000D801002008B5024802F0CEFA08BD00BF68
:100A50005001002082B00A4B1A6E42F001021A6661
:100A60001A6E02F001020092009A9A6D42F08052D2
:100A70009A659B6D03F080530193019B02B0704710
:100A80000010024008B503F03FFD08BD08B503F0B3
:100A9000F9FD08BD08B503F0FFFD08BD08B503F07A
:100AA00047FE08BD08B503F0A5FE08BD08B503491B
:100AB000034802F0EBFE034B187008BD60020020F3
:100AC000000000206402002010B430300B0A9B00AC
:100AD00003F00C03C45801F01F014FF01F0C0CFA77
:100AE00001FC24EA0C0CC2F384628A404CEA020244
:100AF000C2505DF8044B704710B414304B0E9B008D
:100B000003F00403C458C1F304514FF0070C0CFA6E
:100B100001FC24EA0C0C8A404CEA0202C2505DF847
:100B2000044B704730B583B000230193002800F0D8
:100B3000D0800446436D13B323689A6812F0005FB7
:100B400005D09A6822F0204222F03F029A60226883
:100B5000936813F0805F1FD1936823F0104323F054
:100B60003F0343F0805393605B4B1B689B095B4AD8
:100B7000A2FB03239B0901335B00019309E0FFF70C
:100B8000FDFC0023A36584F85030D5E7019B013BB1
:100B90000193019B002BF9D12268936813F0805FC9
:100BA00070D1636D43F010036365A36D43F00103DF
:100BB000A3650120936813F0040300D00123616D45
:100BC00011F0100F7ED1002B7CD1636D23F4817363
:100BD00043F002036365936813F0010F0BD1404BA0
:100BE0009B6813F0010F06D163683E498A6822F4BE
:100BF0007C1213438B60627E636B43EA4233E2688C
:100C00001343A268134394F8202043EA0243012AC5
:100C10003AD0A26A22B102F47072E16A0A43134325
:100C20002168CD68304A2A401A43CA602268936816
:100C300013F0080300D00123ABB9237E94F83010E1
:100C4000490041EA8331D36823F4804323F002034F
:100C50000B43D36094F83830012B1AD02268136903
:100C600023F0010313612369012B22D02268136B47
:100C700023F00F031363636D23F0030343F00103B9
:100C8000636524E0002095E7626A013A43EA424343
:100C9000BFE721680B696FF38A03E26B256C2A4377
:100CA000656C2A43A56C2A43134343F001030B618F
:100CB000D9E721680B6B23F00F03E269013A134374
:100CC0000B63D8E7636D43F010036365012003B045
:100CD00030BD0120FBE700BF1C000020632D3E0556
:100CE000000004500003045007C0F0FF7047704735
:100CF000704770B5044603681E685D6816F0020F01
:100D000010D015F0020F0DD0436D13F0100F03D16A
:100D1000436D43F400634365204600F021FB2368E4
:100D200002221A6016F0040F02D015F0040F05D14C
:100D300016F0080F3AD015F0080F37D0636D13F096
:100D4000100F03D1636D43F4007363652368DA68A1
:100D500012F4406F24D1DA6812F4005F20D11A68CF
:100D600012F0080F1CD09A6812F0040F10D15A68C4
:100D700022F00C025A60636D23F480736365636D27
:100D800013F4805F0CD1636D43F00103636507E0EA
:100D9000636D43F010036365A36D43F00103A36526
:100DA0002046FFF7A3FF23680C221A6016F0200FDD
:100DB00002D015F0200F05D116F0400F4CD015F0E1
:100DC000400F49D0636D13F0100F03D1636D43F4EE
:100DD000005363652368DA6C12F0C00F2AD1012139
:100DE000DA6812F4406F27D10120DA6871B312F08B
:100DF000007F03D050B312F4005F27D1196811F0BF
:100E0000400F23D012F4001F20D19A6812F0080F6F
:100E100014D15A6822F060025A60636D23F4805343
:100E20006365636D13F4807F10D1636D43F001033C
:100E300063650BE00021D3E70020D6E7636D43F044
:100E400010036365A36D43F00103A365204600F022
:100E500083FA236860221A6016F0800F02D015F022
:100E6000800F2DD116F4807F02D015F4807F32D10F
:100E700016F4007F02D015F4007F38D116F0100F61
:100E800017D015F0100F14D0636B23B12368DB6803
:100E900013F0010F0AD0636D43F480636365A36DA3
:100EA00043F00203A3652046FFF722FF23681022C8
:100EB0001A6016F4806F02D015F4806F23D170BDD4
:100EC000636D43F4803363652046FFF710FF2368AA
:100ED00080221A60C6E7636D43F4003363652046E1
:100EE00000F03CFA23684FF480721A60C0E7636D2B
:100EF00043F480236365204600F031FA23684FF401
:100F000000721A60BAE7636D43F480436365A36DB2
:100F100043F00803A36523684FF480621A602046FB
:100F200000F01BFACBE70000F0B583B0002301937B
:100F300090F85030012B00F0048204460D46012346
:100F400080F850300068836813F0040F09D0636D97
:100F500043F0200363650120002384F8503003B080
:100F6000F0BD4968052907D8023903294ED8DFE8C2
:100F700001F0024F484A0C212A68FFF7A5FD2068BE
:100F8000836813F0040300D00123826812F0080282
:100F900000D001220BB9002A3CD02268936813F0DC
:100FA000010F17D12B68E868D2F8B010C3F312060E
:100FB00021EA060100F0180CA84820FA0CF00340C2
:100FC000C3F312030B43C2F8B030EA68A44B9A4251
:100FD00000F0A5802B68A34A134200F0AE81A24A1C
:100FE000926802F0E070A1498B4200F05881A0495C
:100FF0008B4200F07B819F498B4200F08B81002067
:10100000AAE71821B8E74FF48071B5E70621B3E7E6
:101010001221B1E7AA682968FFF76EFD69692268A5
:10102000D368C3F3C1035B009940286904280ED03C
:101030002E68603252F820708F4B3B4006F0F84625
:1010400031430B4343F0004342F82030A5E7136ED1
:10105000116EC1F384612B68C3F3120080BBC3F32C
:101060008463994234D021684B6E4A6EC2F3846225
:101070002B68C3F3120080BBC3F384639A4234D05D
:1010800021688B6E8A6EC2F384622B68C3F31200F0
:1010900080BBC3F384639A4234D02168CB6ECA6E9E
:1010A000C2F384622B68C3F3120080BBC3F3846372
:1010B0009A427FF472AFCB6E23F00043CB666CE7AD
:1010C00093FAA3F313B1B3FA83F3CAE72023C8E773
:1010D000136E23F000431366C5E793FAA3F313B12D
:1010E000B3FA83F3CAE72023C8E74B6E23F000432B
:1010F0004B66C5E793FAA3F313B1B3FA83F3CAE7D8
:101100002023C8E78B6E23F000438B66C5E793FA74
:10111000A3F313B1B3FA83F3CAE72023C8E7206827
:101120002B68C3F312063EBB9A0E013202F01F0277
:10113000092A8CBF00220122002A55D05EBB990EDD
:101140000131890601F0F8418EBB4FEA936C0CF136
:10115000010C0CF01F0C012202FA0CF21143AEBB81
:101160009B0E013303F01F0303EB43031B051943DD
:10117000AA68FFF7C1FC2DE793FAA3F24AB1B2FACD
:1011800082F2013202F01F02092A8CBF00220122E2
:10119000D2E72022F5E793FAA3F131B1B1FA81F158
:1011A0000131890601F0F841CEE72021F8E793FAF2
:1011B000A3F24AB1B2FA82F2013202F01F024FF0FA
:1011C000010C0CFA02F2C9E72022F5E793FAA3F327
:1011D00043B1B3FA83F3013303F01F0303EB43037B
:1011E0001B05C4E72023F6E7E6B9990E013189060D
:1011F00001F0F84116BB4FEA936C0CF1010C0CF0B6
:101200001F0C012202FA0CF21143BEBB9B0E0133EC
:1012100003F01F0303EB43031E3B1B0543F0007366
:101220001943A5E793FAA3F131B1B1FA81F1013184
:10123000890601F0F841DDE72021F8E793FAA3F2EF
:101240004AB1B2FA82F2013202F01F024FF0010CF1
:101250000CFA02F2D8E72022F5E700BFFFFF0700F3
:1012600000007F400000088000030450000052C7C7
:10127000000084CB0100008000F0FF0393FAA3F389
:101280005BB1B3FA83F3013303F01F0303EB4303B2
:101290001E3B1B0543F00073C2E72023F3E712F463
:1012A000000F7FF4A4AE2268274B9A4201D00020A1
:1012B00052E640F4000325498A6822F0E0721343A5
:1012C0008B60234B1B689B09224AA2FB03239B09CB
:1012D000013303EB43039B00019302E0019B013BBD
:1012E0000193019B002BF9D1002035E612F0807F9D
:1012F0007FF481AE2268144B9A4201D000202BE685
:1013000040F0807311498A6822F0E07213438B60C9
:10131000002021E612F4800F11D122680A4B9A4274
:1013200001D0002018E640F4800308498A6822F0C2
:10133000E07213438B6000200EE600200CE60020D4
:101340000AE602200BE600BF000004500003045030
:101350001C000020632D3E057047704770477047A2
:1013600070470000104B1B780BB90120704710B577
:1013700004464FF47A70B0FBF3F30C4A1068B0FBEC
:10138000F3F001F0DBFD68B90F2C01D901200AE070
:10139000002221464FF0FF3001F0BCFD044B1C60E1
:1013A000002000E0012010BD140000201C000020DF
:1013B0001800002010B5094A136843F480731360C5
:1013C000032001F095FD0020FFF7CCFF10B10124B0
:1013D000204610BD0446FFF73DFBF9E70020024020
:1013E000034B1B78034A11680B441360704700BF1E
:1013F0001400002068020020014B1868704700BFED
:101400006802002030B583B00446204B9B6D13F07A
:10141000805F0BD001F0DAFCB0F5007F17D0802C94
:101420001FD82DD0702C2DD000211BE0174DAB6D97
:1014300043F08053AB65AB6D03F080530193019B88
:1014400001F0C4FCAB6D23F08053AB65E4E7802C66
:1014500003D9A02C03D9022104E0002102E00121DC
:1014600000E003210A4A136823F007030B431360CB
:10147000136803F007038B4206D1002003B030BD90
:101480000221EFE70121EDE70120F7E7001002401C
:1014900000200240284A9368D26802F0030213F049
:1014A0000C030AD00C2B06D0042B1FD0082B20D005
:1014B0000020024610E0012AF6D11F4A126812F0FD
:1014C000080F0CD11C4AD2F89420C2F303221B4906
:1014D00051F8222043B100200C2B0DD07047164A42
:1014E0001268C2F30312F2E71046F5E7144800222F
:1014F000F2E714480022EFE70F4BDB6803F0030329
:10150000022B03D0032B02D10E4A00E00C4A0A49F9
:10151000CB68C3F302130133C868C0F3062002FB93
:1015200000F0B0FBF3F0CB68C3F3416301335B0021
:10153000B0FBF3F0D2E700BF00100240804C00087F
:101540000024F40000127A00002800F01C83F0B59B
:1015500083B00446964B9D6805F00C05DE6806F0E6
:101560000306036813F0100F5AD0E5B10C2D18D004
:10157000A369002B00F0BB808D4A136843F0010380
:101580001360FFF739FF0746894B1B6813F0020F02
:1015900040F09A80FFF730FFC01B0228F4D90320E7
:1015A000FCE2012EE4D1824B1B6813F0020F03D042
:1015B000A369002B00F0E982206A7D4B1B6813F0C1
:1015C000080F5BD07A4B1B6803F0F00398425CD89D
:1015D000774B1A6842F008021A601A6822F0F0028B
:1015E000216A0A431A605A6822F47F42E16942EA9A
:1015F00001225A60002D60D0FFF74CFF6C4B9B68B6
:10160000C3F303136B4AD35C03F01F03D8406A4B48
:1016100018606A4B1868FFF7A5FE002840F0BE82EC
:10162000236813F0010F00F08180082D75D00C2D78
:1016300071D06368B3F5803F00F09780B3F5A02FB9
:1016400000F099805A4B1A6822F480321A601A68A6
:1016500022F480221A606368002B00F09980FFF763
:10166000CBFE0746524B1B6813F4003F5ED1FFF7D9
:10167000C3FEC01B6428F5D903208FE24C4BD3F87E
:1016800094301B0903F0F003A0E7FFF7BBFE00282E
:1016900040F07D82464B1A6842F008021A601A68D0
:1016A00022F0F002216A0A431A605A6822F47F424B
:1016B000E16942EA01225A609EE7206AFFF7A2FE32
:1016C000002899D0012069E2394B1A6842F00802DB
:1016D0001A601A6822F0F002216A0A431A605A68F6
:1016E00022F47F42E16942EA01225A6098E7304AD7
:1016F000136823F001031360FFF77EFE07462C4BAF
:101700001B6813F0020F8BD0FFF776FEC01B022878
:10171000F5D9032042E2032E8BD1254B1B6813F42D
:10172000003F03D06368002B00F03382236813F07E
:10173000020F58D0042D45D00C2D41D0E368002B6A
:1017400077D01B4A136843F480731360FFF754FE8D
:101750000646174B1B6813F4806F61D1FFF74CFEF0
:10176000801B0228F5D9032018E2114A136843F4BC
:10177000803313606FE703F18043A3F53C331A68AD
:1017800042F480221A601A6842F480321A6062E7DA
:10179000FFF732FE0746064B1B6813F4003FC5D027
:1017A000FFF72AFEC01B6428F5D90320F6E100BF2D
:1017B00000100240B84C00081C0000201800002057
:1017C000022EBBD1A44B1B6813F4806F03D0E368D7
:1017D000002B00F0E081A04A536823F0F853216900
:1017E00043EA01635360236813F0080F4CD0636928
:1017F0009BB3994AD2F8943043F00103C2F8943075
:10180000FFF7FAFD0646944BD3F8943013F0020F1D
:101810003AD1FFF7F1FD801B0228F4D90320BDE186
:101820008D4A536823F0F853216943EA01635360FA
:10183000D9E7894A136823F480731360FFF7DCFD4E
:101840000646854B1B6813F4806FCCD0FFF7D4FDA0
:10185000801B0228F5D90320A0E17F4AD2F89430FA
:1018600023F00103C2F89430FFF7C6FD06467A4B19
:10187000D3F8943013F0020F06D0FFF7BDFD801BA4
:101880000228F4D9032089E1236813F0040F7AD0E9
:10189000714B9B6D13F0805F36D16F4B9A6D42F0A8
:1018A00080529A659B6D03F080530193019B012642
:1018B0006A4B1B6813F4807F28D0A368012B39D0B2
:1018C000052B3FD0644BD3F8902022F00102C3F8DF
:1018D0009020D3F8902022F00402C3F89020A3684F
:1018E000002B3DD0FFF788FD07465B4BD3F89030C7
:1018F00013F0020F46D1FFF77FFDC01B41F2883382
:101900009842F2D9032049E10026D1E7534A1368EF
:1019100043F480731360FFF76FFD07464F4B1B685E
:1019200013F4807FC9D1FFF767FDC01B0228F5D9EA
:10193000032033E1484AD2F8903043F00103C2F863
:101940009030CCE7444BD3F8902042F00402C3F827
:101950009020D3F8902042F00102C3F89020BEE717
:10196000FFF74AFD07463C4BD3F8903013F0020FC7
:1019700008D0FFF741FDC01B41F288339842F2D9ED
:1019800003200BE1E6B9236813F0200F35D0636A1A
:10199000E3B1314AD2F8983043F00103C2F89830ED
:1019A000FFF72AFD06462C4BD3F8983013F0020FB0
:1019B00023D1FFF721FD801B0228F4D90320EDE09D
:1019C000254A936D23F080539365DCE7224AD2F8D1
:1019D000983023F00103C2F89830FFF70DFD06465A
:1019E0001D4BD3F8983013F0020F06D0FFF704FD1B
:1019F000801B0228F4D90320D0E0A36A002B00F05A
:101A0000CC80022B17D00C2D00F0CC80124A13682A
:101A100023F080731360FFF7EFFC04460E4B1B6846
:101A200013F0007F00F0A880FFF7E6FC001B0228FF
:101A3000F4D90320B2E0084BDB6803F00301E26A4B
:101A400091420DD00C2D00F0AB80034B1B6813F0BE
:101A5000806F2FD00120A1E00010024000700040F4
:101A600003F07002216B0139B2EB011FEAD103F4DC
:101A7000FE42616BB2EB012FE4D103F07842A16B1F
:101A8000B2EBC16FDED103F4C001E26B5208013A40
:101A9000B1EB425FD6D103F0C063226C5208013A29
:101AA000B3EB426FCED1404B1B6813F0007F49D09F
:101AB000002073E03C4A136823F080731360FFF743
:101AC0009BFC0546384B1B6813F0007F06D0FFF7E0
:101AD00093FC401B0228F5D903205FE0324AD3680B
:101AE00032491940E36A206B013843EA0013606B06
:101AF00043EA0023E06B4008013843EA4053206C7E
:101B00004008013843EA4063A06B43EAC0631943CD
:101B1000D160136843F080731360D36843F080731F
:101B2000D360FFF769FC04461F4B1B6813F0007F6E
:101B300006D1FFF761FC001B0228F5D903202DE038
:101B400000202BE0184B1A6842F080721A60DA68A5
:101B500042F08072DA60FFF74FFC0446124B1B68BC
:101B600013F0007F06D1FFF747FC031B022BF5D9CA
:101B7000032013E0002011E00B4AD1680C4B0B400E
:101B8000D36000200AE001207047012006E0012018
:101B900004E0012002E0012000E0002003B0F0BDDD
:101BA0000120FBE70120F9E7001002408C809D0135
:101BB000FCFFEEFE002800F0AF8070B50D46044635
:101BC000594B1B6803F007038B420BD2564A13682C
:101BD00023F007030B431360136803F007038B42E2
:101BE00040F09C80236813F0020F0CD0A2684F4B8A
:101BF0009B6803F0F0039A4205D94C498B6823F0A7
:101C0000F0031A438A60236813F0010F39D0636828
:101C1000032B09D0022B26D063BB444A126812F072
:101C2000020F06D1012076E0404A126812F0007FD0
:101C300076D03E498A6822F0030213438B60FFF797
:101C4000DBFB0646394B9B6803F00C036268B3EB81
:101C5000820F16D0FFF7D0FB801B41F288339842E9
:101C6000F0D9032057E0314A126812F4003FE0D166
:101C7000012050E02D4A126812F4806FD9D1012062
:101C800049E0236813F0020F0CD0A268274B9B6831
:101C900003F0F0039A4205D224498B6823F0F00345
:101CA0001A438A60204B1B6803F00703AB420AD932
:101CB0001D4A136823F007032B431360136803F0D6
:101CC0000703AB422ED1236813F0040F06D0174A46
:101CD000936823F4E063E1680B439360236813F097
:101CE000080F07D0114A936823F46053216943EA2F
:101CF000C1039360FFF7CEFB0C4B9B68C3F3031348
:101D00000B4AD35C03F01F03D8400A4B18600A4B00
:101D10001868FFF727FB70BD012070470120FAE724
:101D20000120F8E70120F6E7002002400010024001
:101D3000B84C00081C00002018000020014B186857
:101D4000704700BF1C00002008B5FFF7F7FF054BE8
:101D50009B68C3F30223044AD35C03F01F03D840FB
:101D600008BD00BF00100240B04C000808B5FFF7E6
:101D7000E5FF054B9B68C3F3C223044AD35C03F021
:101D80001F03D84008BD00BF00100240B04C00083F
:101D9000F8B504460D46594BDB6813F0030F18D015
:101DA000564BDB6803F003030268934202D001261E
:101DB0003046F8BD002A00F09C80504BDB68C3F32E
:101DC000021301334268934201D00126F0E7002656
:101DD00019E00368022B55D0032B5AD0012B40F099
:101DE0008A80464A126812F0020F5ED04348C268E9
:101DF00022F073026168013943EA01131343C3609F
:101E00000026002ED4D13D4A136823F0806313606E
:101E1000FFF7F2FA0746394B1B6813F0006F05D045
:101E2000FFF7EAFAC31B022BF5D90326002EBFD118
:101E3000002D3CD131490B6923F0784323F4FE4354
:101E4000A068E268D20642EA002213430B612B4AE3
:101E5000136843F080631360FFF7CEFA0546274B03
:101E60001B6813F0006F05D1FFF7C6FA401B02286C
:101E7000F5D90326002E9BD1204A1369A1690B4393
:101E8000136195E71D4A126812F4806FAED10126E6
:101E90008EE71A4A126812F4003FA7D1174A126857
:101EA00012F4802FA2D1012682E70126A9E7012D95
:101EB0000FD01248026922F0C06222F4FE42A168EB
:101EC00063695B08013B5B0643EA01231A43026135
:101ED000BDE70A48026922F4C00222F4FE42A1686A
:101EE00023695B08013B5B0543EA01231A43026156
:101EF000ADE701265CE701265AE700BF001002406B
:101F00002DE9F04182B00446036813F4006F26D037
:101F1000436CB3F5000F06D0B3F5400F1DD09BB155
:101F2000012637461DE0B14AD36843F48033D360BD
:101F30000027AE4AD2F8883023F44003616C0B438B
:101F4000C2F8883000260CE000210430FFF720FFA3
:101F500007460028EDD0064603E00027E9E7002603
:101F60003746236813F4003F6BD0A04B9B6D13F0F2
:101F7000805F4CD19D4B9A6D42F080529A659B6D6B
:101F800003F080530193019B4FF00108984A1368B6
:101F900043F480731360FFF72FFA0546944B1B68D8
:101FA00013F4807F05D1FFF727FA401B0228F5D9EB
:101FB0000327002F40D18D4BD3F8903013F440739A
:101FC00015D0E26D9A4212D0884AD2F8903023F4AC
:101FD0004073D2F8901041F48031C2F89010D2F8DA
:101FE000901021F48031C2F89010C2F8903013F0B4
:101FF000010F0FD1002F40F0F7807C4AD2F89030CB
:1020000023F44073E16D0B43C2F8903015E04FF0BC
:102010000008BBE7FFF7F0F90546744BD3F89030A2
:1020200013F0020FE6D1FFF7E7F9401B41F28833C6
:102030009842F2D90327DDE73E46B8F1000F40F0A1
:10204000D980236813F0010F08D0684AD2F888308D
:1020500023F00303216A0B43C2F88830236813F08E
:10206000020F08D0614AD2F8883023F00C03616A6D
:102070000B43C2F88830236813F0040F08D05B4A82
:10208000D2F8883023F03003A16A0B43C2F88830BD
:10209000236813F0200F08D0544AD2F8883023F474
:1020A0004063E16A0B43C2F88830236813F4007F71
:1020B00008D04E4AD2F8883023F44023E16B0B431A
:1020C000C2F88830236813F4806F08D0474AD2F8EA
:1020D000883023F44013216C0B43C2F88830236806
:1020E00013F0400F08D0414AD2F8883023F440530F
:1020F000216B0B43C2F88830236813F0800F08D09F
:102100003A4AD2F8883023F44043616B0B43C2F85B
:102110008830236813F4807F08D0344AD2F888309E
:1021200023F44033A16B0B43C2F88830236813F4C7
:10213000005F0FD02D4AD2F8883023F04063A16CA5
:102140000B43C2F88830A36CB3F1006F58D0B3F1E1
:10215000806F5AD0236813F4002F0FD0234AD2F88F
:10216000883023F04063E16C0B43C2F88830E36CA5
:10217000B3F1006F51D0B3F1806F53D0236813F4E3
:10218000802F0FD0194AD2F8883023F04063216D98
:102190000B43C2F88830236DB3F1006F4AD0B3F11E
:1021A000806F4CD0236813F4804F0CD00F4AD2F8C4
:1021B000883023F04053616D0B43C2F88830636D63
:1021C000B3F1805F43D0236813F4004F08D0074A6F
:1021D000D2F8883023F08043A16D0B43C2F88830D9
:1021E000304602B0BDE8F0813E4626E700100240CE
:1021F000007000401A4A936D23F08053936520E7E6
:10220000D36843F48013D360A4E70121201DFFF7B6
:10221000BFFD00289ED006469CE7D36843F4801398
:10222000D360ABE70121201DFFF7B2FD0028A5D048
:102230000646A3E7D36843F48013D360B2E70121D5
:10224000201DFFF7A5FD0028ACD00646AAE7022115
:10225000201DFFF79DFD0028B5D00646B3E700BF5F
:1022600000100240F0B583B0002362E085685E0094
:102270000324B44025EA0405CC68B4402C438460B0
:10228000456825EA0C054C68C4F300149C402C43B7
:1022900044605FE0DD08083550F8254003F0070C86
:1022A0004FEA8C0C4FF00F0E0EFA0CFE24EA0E0EC5
:1022B0000C6904FA0CF444EA0E0440F8254060E08E
:1022C000042400E0002404FA0EF42C430CF1020C68
:1022D000524D45F82C40524CA568D44325EA0206DD
:1022E0004F6817F4801F01D042EA05064C4DAE60DE
:1022F000ED6804EA05064F6817F4001F01D042EAB2
:102300000506474DEE606D6804EA05064F6817F450
:10231000003F01D042EA0506414D6E602D682C4019
:102320004E6816F4803F01D042EA05043C4A14602E
:1023300001330A6832FA03F46ED04FF0010C0CFA44
:1023400003FC1CEA0202F3D04C6804F00304013CD5
:10235000012C8BD94C6804F00304032C0CD0C46806
:102360005D004FF0030C0CFA05FC24EA0C0C8C68A1
:10237000AC4044EA0C04C4604C6804F00304022C32
:1023800088D004684FEA430E4FF0030C0CFA0EFCA1
:1023900024EA0C0C4C6804F0030404FA0EF444EA3A
:1023A0000C0404604C6814F4403FC1D01D4C256EF1
:1023B00045F001052566246E04F001040194019C9A
:1023C0004FEA930C0CF10205144C54F8255003F01D
:1023D000030E4FEA8E0E0F2404FA0EF425EA0405CC
:1023E000B0F1904F3FF46EAF0F4CA0420ED004F509
:1023F0008064A0420CD004F58064A0420AD004F5A9
:102400008064A0423FF45CAF07245CE701245AE7F4
:10241000022458E7032456E703B0F0BD0000014052
:102420000004014000100240000400480AB181612C
:10243000704781627047704708B5054B5B6903427E
:1024400000D108BD024B5861FFF7F5FFF9E700BF67
:102450000004014003689A6912F0020F01D00022C3
:102460009A6203689A6912F0010F03D19A6942F0E7
:1024700001029A61704711F0010F09D090F84130C4
:1024800003F02803282B01D0F22302E0422300E0CE
:10249000002311F0020F09D043F0440C90F84120C2
:1024A00002F02802282A10D043F0F40311F4004F60
:1024B0000DD110290ED020290FD0402910D001684D
:1024C0000A6822EA03030B6070476346EEE743F0B5
:1024D000B803EEE743F09003EDE743F02003ECE7A9
:1024E00043F04003EBE700285FD010B5044690F8B6
:1024F0004130002B48D0242384F8413022681368EF
:1025000023F0010313606368226823F07063136192
:102510002268936823F400439360E368012B38D06A
:10252000A368226843F404439360E368022B36D027
:102530002268536823F4006353602268536843F0B1
:10254000007343F4004353602268D36823F40043CC
:10255000D360236962691343A169226843EA0123B6
:10256000D360E369216A22680B4313602268136811
:1025700043F00103136000206064202384F841309D
:10258000206384F8420010BD80F84030FEF7A8F8C0
:10259000B1E7A368226843F400439360C5E722686B
:1025A000536843F400635360C7E70120704708B5E0
:1025B000036899691A68436B03B1984708BD70476F
:1025C000704710B5044603681A68002180F842106D
:1025D00012F4804F0ED01A6822F480421A6094F8E8
:1025E0004130DBB2292B0DD094F84130DBB22A2BDD
:1025F00018D010BD12F4004FF1D01A6822F4004236
:102600001A60ECE7282384F8413021232363012159
:102610002046FFF730FF002384F840302046FFF7C4
:10262000CEFFE6E7282384F84130222323630221EA
:102630002046FFF720FF002384F840302046FFF7B4
:10264000BFFFD6E77047F8B5044690F8413003F075
:102650002803282B06D003680822DA61002380F8BB
:102660004030F8BD03689E69C6F300469A69120CB3
:1026700002F0FE059A68C2F30902DF6807F0FE0760
:10268000C168022922D185EAD21515F0060F10D1B2
:10269000816C01318164816C0229E2D10021816465
:1026A0000820D86184F8401031462046FFF7CAFF61
:1026B000D7E74FF40041FFF7DEFE002384F84030F7
:1026C0003A4631462046FFF7BDFFCAE74FF40041C6
:1026D000FFF7D1FE002384F840302A4631462046D9
:1026E000FFF7B0FFBDE7704710B50446174BC36254
:1026F00000230363202280F8412080F842304363A6
:1027000011F0040F13D003685A6A436A1A70436ABF
:1027100001334362038D53B1013B0385438D9BB26B
:10272000013B9BB24385436C43F00403436448F28E
:1027300003012046FFF79FFE23681022DA61002381
:1027400084F840302046FFF7CEFF10BD0000FFFFA9
:102750007047704708B590F84130DBB2602B06D067
:102760000023036380F84030FFF7F2FF08BD202309
:1027700080F841300023036380F84030FFF7E9FF21
:10278000F4E7000010B5044690F84130002280F8CC
:1027900042204548E0626285626C0A436264283BDD
:1027A000DBB2022B19D803212046FFF764FE282351
:1027B00084F841303D4B6363236BA26B1AB1112B3C
:1027C00030D0212B2ED0E26B1AB1122B4BD0222B02
:1027D00049D02046FFF7BEFF10BD48F20301204656
:1027E000FFF749FE2046FFF735FE94F84130DBB293
:1027F000602B14D0202384F8413023689A6912F0AA
:10280000200F0CD09A6912F0100F05D01022DA6157
:10281000636C43F00403636423682022DA610023BD
:102820006363C9E723681A6812F4804F03D01A68FB
:1028300022F480421A60A06B00F0C4FA01280ED086
:10284000A36B1B4A9A63002384F84030A06B00F00E
:1028500091FA0028C0D0A06B836B9847BCE7204654
:10286000FFF778FFB8E723681A6812F4004F03D027
:102870001A6822F400421A60E06B00F0A3FA012803
:102880000ED0E36B0A4A9A63002384F84030E06B71
:1028900000F070FA00289FD0E06B836B98479BE7AD
:1028A0002046FFF757FF97E70000FFFFA52A000823
:1028B000572C0008F8B504460D4602681668C76A2A
:1028C00090F841302021D161213B092B0CD8DFE861
:1028D00003F0057A0B0B0B0B0B81057A48F2010113
:1028E000FFF7C9FD212323632268536843F40043A3
:1028F00053602268536823F0FF7323F48B3323F46F
:10290000FF7323F0010353602046FFF7A3FD16F485
:10291000804F66D02268136823F480431360A36B52
:102920001BB11B685B689BB2638515F0040F11D067
:1029300025F0040523685A6A636A1A70636A0133D2
:102940006362238D33B1013B2385638D9BB2013BD1
:102950009BB26385638D9BB21BB1636C43F0040330
:10296000636415F0100F13D016F0100F10D0638DA4
:102970009BB2002B5AD194F84130DBB2282B40D0C7
:1029800094F84130DBB2292B43D023681022DA615E
:10299000002384F842306363636C002B56D1E36AF2
:1029A00013F5803F60D194F84130DBB2222B6BD01D
:1029B000202384F841300023236384F840302046EC
:1029C000FFF7FDFD5FE048F20201FFF754FD22230F
:1029D000236389E748F20301FFF74DFD00232363DA
:1029E00082E716F4004FA0D02268136823F4004356
:1029F0001360E36B002B98D01B685B689BB2638508
:102A000093E7B7F1007FBBD129462046FFF76CFE64
:102A1000BEE717F5803FB8D023681022DA61204660
:102A2000FFF718FD2046FFF7CCFDB1E72368102221
:102A3000DA61636C43F00403636417B1B7F1807F1C
:102A4000A6D1616C2046FFF79DFEA1E7616C204690
:102A5000FFF798FE94F84130DBB2282B13D12946BA
:102A60002046FFF741FE0EE02046FFF7AAFD0C4B83
:102A7000E362202384F841300023236384F840304C
:102A80002046FFF730FEF8BD202384F841300023B4
:102A9000236384F840302046FFF792FDF3E700BF40
:102AA0000000FFFF10B50446C06A94F84030012BC7
:102AB00000F09A80012384F8403011F0200F02D0FA
:102AC00012F0200F16D111F0100F3ED012F0100F9F
:102AD0003BD0638D9BB243BB94F84130DBB2282BD3
:102AE0000FD094F84130DBB2292B11D0236810228B
:102AF000DA6102E02046FFF7DDFE002084F84000A6
:102B000010BDB0F1007FECD12046FFF7EDFDF4E7FA
:102B100010F5803FEAD023681022DA612046FFF7E3
:102B200099FC2046FFF74DFDE7E723681022DA61A4
:102B3000636C43F00403636410B1B0F1807FDCD1B7
:102B4000616C2046FFF71EFED7E711F0040F1FD07F
:102B500012F0040F1CD0638D9BB273B123685A6AC4
:102B6000636A1A70636A01336362238D013B2385B4
:102B7000638D9BB2013B9BB26385638D9BB2002B3F
:102B8000BBD110F5803FB8D02046FFF71AFDB4E75F
:102B900011F0080F02D012F0080F18D111F0020F37
:102BA000ABD012F0020FA8D0638D9BB29BB1626ACA
:102BB000236812789A62636A01336362638D9BB201
:102BC000013B9BB26385238D013B238595E720461E
:102BD000FFF739FD91E7B0F1807F01D000288CD15B
:102BE0002046FFF7EEFC88E7022089E710B502686F
:102BF0009369116813F4807F09D011F0800F06D01B
:102C0000446C44F0010444644FF48074D46113F4C0
:102C1000806F0AD011F0800F07D0426C42F008029A
:102C2000426402684FF48064D46113F4007F0AD0D8
:102C300011F0800F07D0436C43F002034364036834
:102C40004FF40072DA61416C11F00B0F00D110BD2E
:102C5000FFF798FDFBE708B5806A836B0BB1002294
:102C60009A63C36B0BB100229A63FFF773FD08BD33
:102C7000034690F84120D2B2202A23D190F8402078
:102C8000012A21D0012280F84020242280F841200E
:102C90000068026822F0010202601868026822F4EB
:102CA00080520260186802681143016019680A685E
:102CB00042F001020A60202283F84120002083F8BC
:102CC000400070470220704702207047034690F88A
:102CD0004120D2B2202A21D190F84020012A1FD0D1
:102CE000012280F84020242280F8412000680268F8
:102CF00022F0010202601868026822F4706242EA5F
:102D00000122026019680A6842F001020A6020226A
:102D100083F84120002083F840007047022070476C
:102D200002207047034618B390F82520D2B2022A39
:102D300006D00422C263002280F8242001207047BC
:102D400001680A6822F001020A6001680A6822F03C
:102D50000E020A60426C02F01C02006C012101FAB2
:102D600002F2426083F82510002083F824007047A7
:102D70000120704708B590F82530DBB2022B03D054
:102D80000423C363012008BD0268136823F0010314
:102D900013600268136823F00E031360436C03F0A2
:102DA0001C03016C012202FA03F34B6080F825201A
:102DB000002380F82430836B13B198470020E2E7AA
:102DC0000020E0E790F8250070470000024B1868EB
:102DD00000F4C060704700BF00700040B0F5007F95
:102DE0000FD01F4B1B6803F4C063B3F5806F34D062
:102DF0001B4A136823F4C06343F48063136000200C
:102E00007047174B1B6803F4C063B3F5007F20D0F5
:102E1000134A136823F4C06343F400731360114B27
:102E20001B68322202FB03F30F4AA2FB03239B0C15
:102E3000013300E0013B0A4A526912F4806F01D06D
:102E4000002BF7D1064B5B6913F4806F03D1002090
:102E5000704700207047032070470020704700BF74
:102E6000007000401C00002083DE1B43002807DBAD
:102E700000F01F02400901239340024A42F820302B
:102E8000704700BF00E100E0002808DB0901C9B27B
:102E900000F1604000F5614080F80013704700F0D9
:102EA0000F000901C9B2014B1954704714ED00E03D
:102EB00000B500F00700C0F1070CBCF1040F28BFFB
:102EC0004FF0040C031D062B0FD9C31E4FF0FF3E1D
:102ED0000EFA0CF021EA000199400EFA03FE22EAF4
:102EE0000E0241EA02005DF804FB0023EEE7000059
:102EF000074AD36823F4E0631B041B0C000200F4B0
:102F0000E060034343F0BF6343F40033D360704792
:102F100000ED00E010B50446054BD868C0F3022070
:102F2000FFF7C6FF01462046FFF7AEFF10BD00BF0A
:102F300000ED00E008B5FFF799FF08BD0138B0F1DA
:102F4000807F0BD24FF0E0235861054AF02182F8D0
:102F500023100020986107221A61704701207047F2
:102F600000ED00E0026852E8003F23F4907342E86D
:102F700000310029F6D1026802F1080353E8003F4E
:102F800023F00103083242E800310029F3D1036E37
:102F9000012B06D02023C0F880300023036683660F
:102FA0007047026852E8003F23F0100342E8003106
:102FB0000029F6D1EEE7704708B5026852E8003FF5
:102FC00023F0400342E800310029F6D12023C367F3
:102FD0000023C366FFF7EFFF08BD704708B5806A9E
:102FE000FFF7FBFF08BD704770B504460268D36960
:102FF0001168906840F60F0C13EA0C0F0AD113F019
:10300000200F0DD011F0200F0AD0A36E0BB3204675
:1030100098471EE010F001051CD1AD4E314219D188
:10302000256E012D00F0A48013F4801F03D010F44E
:10303000800F40F0468113F0800F03D011F0800F15
:1030400040F04A8113F0400F03D011F0400F40F0E0
:103050004A8170BD13F0010F09D011F4807F06D0B2
:1030600001201062D4F884200243C4F8842013F0B5
:10307000020F09D045B1226802201062D4F88420E2
:1030800042F00402C4F8842013F0040F09D045B1C3
:10309000226804201062D4F8842042F00202C4F8AE
:1030A000842013F0080F0BD011F0200F00D13DB198
:1030B000226808201062D4F884200243C4F88420D7
:1030C00013F4006F0CD011F0806F09D022684FF418
:1030D00000601062D4F8842042F02002C4F88420FA
:1030E000D4F88420002AB4D013F0200F06D011F0B9
:1030F000200F03D0A36E0BB120469847D4F884204C
:1031000023689B6813F0400F02D112F0280F28D0DB
:103110002046FFF727FF23689B6813F0400F1CD061
:10312000226802F1080353E8003F23F0400308320D
:1031300042E800310029F3D1636F53B1654A9A63C5
:10314000606FFFF717FE002883D0606F836B98478E
:103150007FE72046FFF741FF7BE72046FFF73DFF73
:1031600077E72046FFF739FF0023C4F8843070E783
:1031700013F0100F3FF458AF11F0100F3FF454AF9D
:103180001023136223689B6813F0400F5FD0616FB8
:103190000A6853689BB2002B49D0B4F85800984293
:1031A00045D9A4F85A300B681B6813F0200F31D1B1
:1031B000226852E8003F23F4807342E8003100297E
:1031C000F6D1226802F1080353E8003F23F001031F
:1031D000083242E800310029F3D1226802F10803E5
:1031E00053E8003F23F04003083242E80031002951
:1031F000F3D12023C4F8803000232366226852E8EC
:10320000003F23F0100342E800310029F6D1606F3F
:10321000FFF788FD02236366B4F85810B4F85A30FB
:103220009BB2C91A89B22046FFF7DDFE11E7B4F858
:10323000581099427FF40DAF136813F0200F3FF43C
:1032400008AF022363662046FFF7CDFE01E7B4F81E
:103250005810B4F85A309BB2C91A89B2B4F85A302F
:103260009BB2002B3FF4F5AE00293FF4F2AE22688A
:1032700052E8003F23F4907342E800300028F6D172
:10328000226802F1080353E8003F23F001030832EB
:1032900042E800300028F3D12023C4F88030002316
:1032A0002366A366226852E8003F23F0100342E839
:1032B00000300028F6D1022363662046FFF793FE14
:1032C000C7E64FF480131362204600F0A9FAC0E667
:1032D00020010004DD2F0008E36E002B3FF4B9AE9F
:1032E00020469847B5E62046FFF766FEB1E600BFE8
:1032F00010B5044683680269134342691343C269E7
:10330000134301680868954A02401A430A6022681C
:10331000536823F44053E1680B435360A16922686A
:103320008F4B9A4201D0236A1943936823F4306388
:103330000B43936023688B4A93421FD08A4A93427F
:1033400030D08A4A934246D0854A934255D01022C3
:1033500083498B427AD0E069B0F5004F00F0A68037
:10336000082A00F20F81DFE812F0CE00E500CC0061
:103370000D01E8000D010D010D01EB0002F55842B1
:10338000D2F8882002F00302032A09D8DFE802F00D
:1033900002044A060122DBE70422D9E70822D7E724
:1033A0001022D5E702F5E632D2F8882002F00C02AE
:1033B0000C2A0ED8DFE802F0070D0D0D090D0D0DDA
:1033C000380D0D0D0B000022C2E70422C0E70822D1
:1033D000BEE71022BCE702F5E432D2F8882002F002
:1033E0003002202A22D004D812B3102A22D104227B
:1033F000AEE7302A20D10822AAE702F5C832D2F877
:10340000882002F44062B2F5006F17D005D8BAB137
:10341000B2F5806F16D104229AE7B2F5406F13D14E
:10342000082295E7022293E7022291E702228FE722
:1034300000228DE710228BE7102289E7022287E71E
:10344000002285E7102283E7102281E7082A7AD834
:10345000DFE802F008792A792779797905004FF4B5
:10346000004003E0FEF770FC00286ED0626802EBBB
:10347000420383426BD8B0EB023F6AD8010E0002D0
:103480005308C0184FF0000341F10001FCF7FAFEA9
:10349000A0F54072364B9A425DD82368D860002070
:1034A00044E0FDF7F7FFDFE73248DFE7082A63D89B
:1034B000DFE802F007210562246262620B002D48FA
:1034C00003E0FEF741FC002858D06268530803EB84
:1034D0004003B3FBF2F3A3F110014FF6EF729142F8
:1034E0004ED89AB222F00F02C3F34203134322686C
:1034F000D36000201AE0FEF739FCE4E7FDF7CAFFCD
:10350000E1E71C4803E0FEF71FFC00283CD063689D
:1035100000EB5300B0FBF3F0A0F110024FF6EF7395
:103520009A4233D8236880B2D86000200023A36673
:10353000E36610BDFEF71AFCE7E7FDF7ABFFE4E733
:103540004FF40040E3E70120F0E70020EEE7012020
:10355000ECE70120EAE70120E8E700BFF369FFEFAD
:103560000080004000380140004400400048004016
:10357000FFFC0F000024F4000120D7E70020D5E76E
:103580000120D3E70120D1E70020CFE70120CDE7DC
:10359000436A13F0080F06D00268536823F400430F
:1035A000416B0B435360436A13F0010F06D002686E
:1035B000536823F40033816A0B435360436A13F06A
:1035C000020F06D00268536823F48033C16A0B43AC
:1035D0005360436A13F0040F06D00268536823F463
:1035E0008023016B0B435360436A13F0100F06D026
:1035F0000268936823F48053816B0B439360436AA2
:1036000013F0200F06D00268936823F40053C16BB7
:103610000B439360436A13F0400F0AD0026853686B
:1036200023F48013016C0B435360036CB3F5801FCC
:103630000BD0436A13F0800F06D00268536823F45E
:103640000023816C0B43536070470268536823F476
:10365000C003416C0B435360EBE72DE9F84305468B
:103660000E4617469946DDF820802B68DC6936EA5D
:1036700004040CBF01240024BC4236D1B8F1FF3F42
:10368000F3D0FDF7B9FEA0EB0900404530D8B8F102
:10369000000F2FD02B681A6812F0040FE5D0802E8F
:1036A000E3D0402EE1D0DA6912F0080F11D1DA69C7
:1036B00012F4006FD9D04FF400621A622846FFF767
:1036C00051FC2023C5F88430002385F8783003208E
:1036D0000CE008241C622846FFF744FCC5F884402F
:1036E000002385F87830012000E00020BDE8F88351
:1036F0000320FBE70320F9E730B583B0044600233D
:10370000C0F88430FDF778FE05462268126812F092
:10371000080F0FD123681B6813F0040F26D1202354
:10372000E367C4F8803000202066606684F8780083
:1037300003B030BD6FF07E430093034600224FF488
:1037400000112046FFF789FF0028E3D0226852E8E5
:10375000003F23F0800342E800310029F6D1202306
:10376000E367002384F878300320E1E76FF07E43BD
:1037700000932B4600224FF480012046FFF76DFF97
:103780000028CCD0226852E8003F23F4907342E82E
:1037900000310029F6D1226802F1080353E8003F06
:1037A00023F00103083242E800310029F3D120233D
:1037B000C4F88030002384F878300320B8E768B379
:1037C00010B50446C36F03B32423E367226813686C
:1037D00023F001031360636AE3B92046FFF788FD15
:1037E000012811D02268536823F490435360226863
:1037F000936823F02A0393602268136843F001035F
:1038000013602046FFF778FF10BD80F87830FDF791
:1038100039F8D9E72046FFF7BBFEDEE70120704705
:1038200070470000034AD2F8883043F47003C2F8AE
:103830008830704700ED00E0134B5B7A13BB10B586
:10384000044603F0FF00104B93F809C05FFA8CFCAC
:103850004FF0000E03F80CE093F809C003EB8C0C5A
:10386000CCF804405C7A1C4422725A7A541CE4B2AC
:103870005C7230320A703A234B702F238B7081F8C0
:1038800003E010BD012070476C02002008B5002243
:10389000FFF7D2FF08BD000008B51048104B0360C9
:1038A0004FF482734360002383604FF4E062C26090
:1038B000036143614FF4007282612022C26103629E
:1038C000436283620722C26203630823436300F0FA
:1038D00052F900B908BDFCF70FFDFBE778020020A4
:1038E0000030014000B589B0002303930493059391
:1038F000069307930268184B9A4202D009B05DF80C
:1039000004FB03F560431A6E42F480521A661A6E85
:1039100002F480520192019ADA6C42F00102DA64F8
:10392000DB6C03F001030293029B41F60203039355
:1039300002230493032306930523079303A94FF05F
:103940009040FEF78FFC002211462320FFF7E2FA99
:103950002320FFF7EFFAD1E7003001402DE9F047CF
:1039600082B00546884617461E46FDF745FD0A9B70
:103970001B1A03EB0609FDF73FFD8246284B1B6827
:10398000C3F3CB3309FB03F301932B689C6838EA3C
:1039900004040CBF01230023BB423DD0B6F1FF3F1E
:1039A000F3D0FDF729FDA0EB0A00484503D2019BA7
:1039B00073BB9946E9E72A68536823F0E003536034
:1039C0006B68B3F5827F0BD0AB6AB3F5005F14D0A0
:1039D000012385F85D30002385F85C3003201CE06E
:1039E000AB68B3F5004F02D0B3F5806FECD12A6815
:1039F000136823F040031360E6E72A68136823F492
:103A0000005313602A68136843F400531360DFE720
:103A1000019B013B0193B8E7002002B0BDE8F087AD
:103A20001C0000202DE9F04782B006460C461546E2
:103A30001F4600238DF80330FDF7DEFC0A9B1B1A9E
:103A400003EB0708FDF7D8FC8146D6F800A0304B01
:103A50001B6803EB8303C3EBC3031B0D08FB03F3DA
:103A6000019302E0B7F1FF3F12D133689B6803EA8C
:103A7000040CAC4547D0B4F5C06FF3D1002DF1D1A3
:103A80009AF80C30DBB28DF803309DF80330E9E78B
:103A9000FDF7B2FCA0EB0900404503D2019B73BBCC
:103AA0009846E2E73268536823F0E0035360736896
:103AB000B3F5827F0BD0B36AB3F5005F14D0012356
:103AC00086F85D30002386F85C3003201CE0B36884
:103AD000B3F5004F02D0B3F5806FECD132681368B4
:103AE00023F040031360E6E73268136823F40053C1
:103AF00013603268136843F400531360DFE7019BDF
:103B0000013B0193B1E7002002B0BDE8F08700BFA0
:103B10001C00002070B582B004460D461646009287
:103B20000B4600224FF4C051FFF77CFFB0B900965E
:103B30002B46002280212046FFF710FFA8B90096EF
:103B40002B4600224FF4C0612046FFF76BFF50B1B7
:103B5000236E43F020032366032004E0236E43F02A
:103B600020032366032002B070BD236E43F02003C0
:103B700023660320F7E700286AD010B50446436A9D
:103B800033B94368B3F5827F05D00023C36102E0F7
:103B90000023036143610023A36294F85D30002B8E
:103BA0004DD0022384F85D302268136823F040036F
:103BB0001360E368B3F5E06F47D90022B3F5706F87
:103BC00004D0B3F5E06F01D00023A362636803F46F
:103BD0008273A16801F404410B43216901F00201E1
:103BE0000B43616901F001010B43A16901F400710C
:103BF0000B43E16901F038010B43216A01F08001B8
:103C00000B43A16A01F4005120680B430360638BEE
:103C100003F00403616A01F010010B43616B01F0D2
:103C200008010B43E16801F470610B432168134301
:103C30004B6000202066012384F85D3010BD84F8BD
:103C40005C302046FFF74EFEABE74FF48052B5E7FD
:103C5000012070472DE9F04383B004468946904621
:103C60001D46FDF7C9FB94F85D60F6B2012E40F0E9
:103C7000EF800746B9F1000F00F0EB80B8F1000FBC
:103C800000F0E78094F85C30012B00F0E68001231F
:103C900084F85C30032384F85D3000232366C4F885
:103CA0003890A4F83C80A4F83E802364A4F8443003
:103CB000A4F846302365E364A368B3F5004F1ED033
:103CC00023681A6812F0400F03D11A6842F04002CC
:103CD0001A60E368B3F5E06F47D9636813B1B8F1D0
:103CE000010F20D1A26B23681288DA60A36B023324
:103CF000A363E38F9BB2013B9BB2E38713E022688F
:103D0000136823F0400313602268136843F4804370
:103D10001360D5E7FDF770FBC01BA84202D3B5F1D5
:103D2000FF3F1AD1CDB1E38F9BB2002B75D0236832
:103D30009A6812F0020FEDD0A26B1288DA60A36BC2
:103D40000233A363B4F83EC01FFA8CFC0CF1FF3CB5
:103D50001FFA8CFCA4F83EC0E5E7012384F85D302F
:103D6000002384F85C30032673E0636813B1B8F174
:103D7000010F32D1E38F9BB2012B0CD9A26B2368C8
:103D80001288DA60A36B0233A363E38F9BB2023B1A
:103D90009BB2E38721E0A26B236812781A73A36BAE
:103DA0000133A363E38F9BB2013B9BB2E38714E033
:103DB000A36B1B781373A36B0133A363E38F9BB2D5
:103DC000013B9BB2E38708E0FDF716FBC01BA8424E
:103DD00002D3B5F1FF3F18D1BDB1E38F9BB2E3B180
:103DE0002268936813F0020FEED0E38F9BB2012B91
:103DF000DED9A36B1B88D360A36B0233A363E38F6D
:103E00009BB2023B9BB2E387E7E7012384F85D3076
:103E1000002384F85C3003261BE03A4629462046FE
:103E2000FFF778FE08B120232366A36833B9019316
:103E30002368DA6801929B680193019B012384F84F
:103E40005D30002384F85C30236E13B9002600E057
:103E50000226304603B0BDE8F0830226F9E72DE9DB
:103E6000F8430446884691461F46089DFDF7C4FA6C
:103E7000064694F85D30DBB26268012B0AD0B2F5D9
:103E8000827F40F05C81A268002A40F05B81042BB5
:103E900040F05A81B8F1000F00F05881B9F1000FDD
:103EA00000F05681002F00F0558194F85C30012B12
:103EB00000F05281012384F85C3094F85D30DBB26D
:103EC000042B02D0052384F85D3000232366C4F858
:103ED0004090A4F84670A4F84470C4F83880E7878E
:103EE000A787E3642365E368B3F5E06F01D8012F8A
:103EF00023D92268536823F48053536023681A68D7
:103F000012F0400F03D11A6842F040021A60E368D1
:103F1000B3F5E06F5FD963680BB1012F0BD1A26BD2
:103F200023681288DA60A36B0233A363E38F9BB22A
:103F3000013B9BB2E387012730E02268536843F4DA
:103F400080535360DAE7A26B1288DA60A36B023306
:103F5000A363E38F9BB2013B9BB2E38700272368F7
:103F60009A6812F0010F11D0B4F8462092B26AB1EB
:103F7000DA68236C1A80236C02332364B4F8463069
:103F80009BB2013B9BB2A4F846300127FDF734FAFF
:103F9000831BAB4202D3B5F1FF3F14D1E38F9BB239
:103FA0002BB9B4F846309BB2002B00F0B1802368E7
:103FB0009A6812F0020FD2D0E28F92B2002ACED0CD
:103FC000002FCCD0BFE7012384F85D30002384F8B4
:103FD0005C300320B4E063680BB1012F0FD1E38F95
:103FE0009BB2012B0DD9A26B23681288DA60A36BF8
:103FF0000233A363E38F9BB2023B9BB2E3870127AB
:1040000049E0A26B236812781A73A36B0133A36390
:10401000E38F9BB2013B9BB2E387F0E7E28F92B262
:10402000012A0CD9A26B1288DA60A36B0233A36356
:10403000E38F9BB2023B9BB2E38700273DE0A26B7C
:1040400012781A73A36B0133A363E38F9BB2013B16
:104050009BB2E387002730E02268536843F4805323
:10406000536001270DE0226C1B7B1370236C01331E
:104070002364B4F846309BB2013B9BB2A4F84630AF
:104080000127FDF7B9F9801BA84202D3B5F1FF3F24
:1040900036D1002D34D0E38F9BB223B9B4F846302B
:1040A0009BB2002B34D023689A6812F0020F04D020
:1040B000E28F92B20AB1002FB0D123689A6812F051
:1040C000010FDED0B4F8462092B2002AD9D0B4F85D
:1040D000462092B2012AC6D9DA68236C1A80236C72
:1040E00002332364B4F846309BB2023B9BB2A4F87F
:1040F0004630B4F846309BB2012BADD90127C0E75A
:10410000012384F85D30002384F85C30032017E03D
:10411000324629462046FFF7FDFC48B9012384F8C2
:104120005D30002384F85C30236E4BB1012007E042
:1041300020232366002384F85C30012000E0022065
:10414000BDE8F8830220FBE70220F9E70120F7E74A
:104150000120F5E70120F3E70220F1E770470000B6
:1041600030B585B00446026851689368C3F3801087
:1041700013F0400F05D113F0010F02D011F0400FE2
:1041800069D113F0020F02D011F0800F67D1C3F391
:10419000401513F0200F03D110B913F4807F61D0C4
:1041A00011F0200F5ED078B194F85D00C0B2032802
:1041B0005AD0206E40F00400206600200090D068A5
:1041C000009090680090009865B1206E40F001006A
:1041D00020660020029090680290106820F0400055
:1041E0001060029A13F4807F09D0236E43F0080315
:1041F00023660023039323689B680393039B236E2A
:10420000002B2FD02268536823F0E0035360012372
:1042100084F85D3011F0030F2ED02268536823F02C
:1042200003035360A36D4BB1154A9A63A06DFEF76B
:10423000A1FD18B1236E43F040032366636D8BB17B
:104240000F4A9A63606DFEF795FD58B1236E43F0F7
:104250004003236606E0E36C2046984702E0236DA6
:104260002046984705B030BD00230193D3680193E1
:1042700093680193019BF5E72046FFF76FFFF1E795
:104280008542000808B5806A0023A0F84630C3873D
:10429000FFF764FF08BD0000014B00221A70704751
:1042A000DC020020014B1878704700BFDC020020C0
:1042B00008B50A46054B1B689B6813F0020FF9D03E
:1042C000642301460148FFF7C5FC08BD78020020C1
:1042D00000B583B08DF80700074B1B689B6813F08F
:1042E000020FF9D0642301220DF107010248FFF704
:1042F000B1FC03B05DF804FB7802002008B5002291
:104300004FF400710148FEF791F808BD0004004821
:1043100008B501224FF400710148FEF787F808BD87
:104320000004004800B585B0FF238DF80F300A4B1C
:104330001B689B6813F0020FF9D0642300930123DC
:104340000DF10E020DF10F010348FFF788FD9DF8F6
:104350000E0005B05DF804FB7802002010B582B0B5
:10436000FFF7D6FF002403E0FF20FFF7B1FF013481
:10437000092CF9DDFFF7C2FF40238DF80030002340
:104380008DF801308DF802308DF803308DF804304F
:1043900095238DF8053006216846FFF789FF41F621
:1043A000FF74FFF7BFFF012802D00CB1013CF8E712
:1043B000FFF7AEFFFF20FFF78BFF024B01221A70C1
:1043C00002B010BDDC02002008B5064B4FF4FA72B3
:1043D0001A80FFF7A7FFFF2803D0024B1B88002B92
:1043E000F7D108BDDE02002038B505460C46FFF7C0
:1043F000EBFFFF2801D0FF2038BD2846FFF768FFFC
:10440000200EFFF765FFC4F30740FFF761FFC4F319
:104410000720FFF75DFFE0B2FFF75AFF402D13D0F2
:10442000482D0FD00120FFF753FF4C2D0ED00A244A
:10443000FFF778FF10F0800FDED0631E13F0FF044B
:10444000F6D1D9E78720EEE79520ECE7FFF76AFF82
:10445000EDE710B50446FFF765FF207010BD0000C2
:1044600038B504460D460E4BC8221A80FFF75AFF96
:10447000FF2803D10A4B1B88002BF7D1FE280DD152
:1044800020460134FFF7E5FF2B46013D002BF7D115
:10449000FFF748FFFFF746FF012038BD0020FCE78B
:1044A000E002002070B506460D46FFF78DFFFF289D
:1044B00001D0002070BD00242846FFF709FFFD2D24
:1044C00005D104F01F04052C1CD00020F2E74FF4A6
:1044D00000713046FFF7ECFEFFF724FFFFF722FFE5
:1044E000254601E00135EDB2402D06D8FFF71AFF51
:1044F000044600F01F03052BF4D1FFF713FF00283B
:10450000FBD0DEE70120D5E7002840F0B28030B5CF
:1045100083B0594B1B7813F0020404D0564B187823
:10452000C0B203B030BDFFF719FFFFF7E7FE00216F
:104530004020FFF759FF0546012811D04F4B1C7052
:10454000FFF7E6FEFFF7EEFE002C00F08F804A4AF0
:10455000137803F0FE031370474B1878C0B2E0E7FE
:10456000474B4FF47A721A804FF4D5714820FFF709
:104570003BFF012843D1254608E0FFF7D3FE05F1B4
:1045800008036B4403F8040C0135EDB2032DF4D994
:104590009DF80630012BD1D19DF80730AA2BCDD143
:1045A00002E0374B1B8863B100217720FFF71CFF27
:1045B0000128F6D84FF080416920FFF715FF002849
:1045C000EFD12F4B1B88002BB8D000217A20FFF7AA
:1045D0000BFF05460028B1D1032D09D8FFF7A2FE35
:1045E00005F108036B4403F8040C0135EDB2F3E761
:1045F0009DF8043013F0400F36D00C249EE70021C4
:104600007720FFF7F1FE012810D800216920FFF77D
:10461000EBFE01280AD8022508E000217720FFF7E9
:10462000E3FE012819D9164B1B883BB1022DF4D0AB
:1046300000214120FFF7D8FE0028F4D1104B1B8841
:10464000002B3FF47BAF4FF400715020FFF7CCFEFE
:1046500000287FF473AF2C4670E700216920FFF734
:10466000C3FE0028DFD1E9E7042467E7FFF714FE63
:1046700072E70120704700BF20000020DD0200200B
:10468000E002002018B9034B1878C0B2704701202F
:10469000704700BF2000002000283ED170B50D46B5
:1046A00016461C46002B3AD01F4B1B7813F0010F07
:1046B00037D11E4B1B7813F0040F00D15602FFF7C1
:1046C0001DFE012C1AD031465220FFF78DFE68B92D
:1046D0004FF400712846FFF7C3FE18B105F50075C9
:1046E000013CF5D100214C20FFF77EFEFFF710FEC4
:1046F000FFF718FE201E18BF012070BD3146512063
:10470000FFF772FE0028F1D14FF400712846FFF741
:10471000A7FE0028EAD00024E8E704207047042020
:10472000EBE70320E9E700BF20000020DD020020C6
:10473000002852D170B50D4616461C46002B4ED0AF
:104740002A4B1B7813F0010F4BD1284B1B7813F029
:10475000040F48D1264B1B7813F0040F00D15602EA
:10476000FFF7CCFD012C1FD0214B1B7813F0020F5B
:1047700028D131465920FFF737FE68B9FC21284679
:10478000FFF790FE18B105F50075013CF6D1FD214B
:104790000020FFF787FEF0B1FFF7BAFDFFF7C2FD7B
:1047A000201E18BF012070BD31465820FFF71CFEA7
:1047B0000028F1D1FE212846FFF774FE0028EBD037
:1047C0000024E9E700217720FFF70EFE214657205D
:1047D000FFF70AFECDE70124DEE70420704704203E
:1047E000E1E70320DFE70220DDE700BF2000002033
:1047F000DD020020F0B585B0002840F0B2800D4603
:1048000016460746052913D0594B1C7814F00104AD
:1048100040F0AB80FFF772FD0D2D00F29680DFE8CF
:1048200005F05E1B5A9494949494949494647382C7
:104830001478012C07D0022C09D0002C40F0938072
:10484000FFF72AFD86E0FFF789FD3C4682E0FFF78F
:1048500029FD70703C467DE000214920FFF7C4FD32
:10486000044608B12C4671E010216846FFF7F8FDB8
:10487000002872D09DF800309B09012B1FD09DF8B5
:10488000052002F00F029DF80A3002EBD3129DF8CA
:1048900009305B0003F006031A449DF808309DF8C8
:1048A00007109B0903EB81039DF80610890201F4B0
:1048B00040610B440133073A9340336046E09DF872
:1048C00009309DF8082003EB02239BB201339BB211
:1048D0009B0233603AE04FF40073338036E0FFF719
:1048E00073FDFF283BD0012430E000214920FFF771
:1048F0007BFD044608B1012428E010213046FFF773
:10490000AFFD18BB012421E000214A20FFF76CFD18
:10491000044608B1012419E010213046FFF7A0FD3C
:10492000A0B9012412E000217A20FFF75DFD0446C2
:1049300038B104240AE0FFF7F5FC06F8010B013456
:10494000E4B2032CF7D9042400E00424FFF7E0FCD0
:10495000FFF7E8FC204605B0F0BD2C46F6E72C46F4
:10496000F4E70424F6E70424F4E70324F2E700BFA5
:1049700020000020DFF834D0FEF754FF0C480D492A
:104980000D4A002302E0D458C4500433C4188C42AA
:10499000F9D30A4A0A4C002301E013600432A24210
:1049A000FBD3FBF747FCFBF7E6FCFEE700C000206B
:1049B0000000002028000020E04C00082800002013
:1049C000E4020020FEE72DE9F04786468C460846C3
:1049D000089E154674461946002B40F0C280854259
:1049E000B2FA82F245D94AB1C2F1200300FA02FCC0
:1049F0002EFA03F3954043EA0C0C94404FEA154E0F
:104A0000A8B2BCFBFEF8230C0EFB18CC08FB00F987
:104A100043EA0C43994528D9EB1808F1FF3704D233
:104A2000994502D9A8F102072B44A3EB0903A4B2CC
:104A3000B3FBFEFC0EFB1C330CFB00F044EA03440A
:104A4000A04214D92C190CF1FF3304D2A04202D990
:104A5000ACF102032C44241A43EA07401EB1D440AF
:104A6000002334607360BDE8F0874746DDE76346A6
:104A7000F1E792BB431B01214FEA154EAFB2B3FBE6
:104A8000FEFC200C0EFB1C330CFB07F840EA034332
:104A9000984562D9EB180CF1FF3004D2984502D941
:104AA000ACF102002B44A3EB0803A4B2B3FBFEFC61
:104AB0000EFB1C330CFB07F744EA0344A7424ED914
:104AC0002C190CF1FF3304D2A74202D9ACF1020336
:104AD0002C44E41B43EA0040C0E7C2F1200320FA63
:104AE00003F1954090402EFA03F303434FEA154E2D
:104AF000AFB2B1FBFEFC0EFB1C10190C0CFB07F84F
:104B000041EA0041884504FA02F422D969180CF1FF
:104B1000FF3004D2884502D9ACF102002944A1EB50
:104B200008019BB2B1FBFEFC0EFB1C110CFB07F74E
:104B300043EA01439F420ED9EB180CF1FF3104D236
:104B40009F4202D9ACF102012B44DB1B41EA004138
:104B500092E76046E3E76146F7E76046A3E763460E
:104B6000B7E7834206D916B9002108467BE7C6E9B4
:104B700000E0F9E7B3FA83F78FB9834201D37245B6
:104B800008D8BEEB020460EB030301209C461EB96B
:104B9000002168E73846FAE7C6E9004CF8E7C7F1B4
:104BA000200CBB4022FA0CF41C432EFA0CF120FA24
:104BB0000CF3B84001434FEA14490EFA07F5B3FB72
:104BC000F9F81FFA84FE09FB18300B0C08FB0EFAEB
:104BD00043EA00439A4502FA07F240D9E31808F184
:104BE000FF3004D29A4502D9A8F102002344A3EB76
:104BF0000A0389B2B3FBF9F809FB183308FB0EFE70
:104C000041EA03418E452CD9611808F1FF3304D2E3
:104C10008E4502D9A8F10203214443EA0040A0FBDB
:104C20000298A1EB0E014145CE46434602D306D180
:104C30004D4504D2B9EB020E68EB04030138002E97
:104C4000A6D0B5EB0E0261EB030101FA0CFC22FACF
:104C500007F34CEA0303F940C6E9003198E7404600
:104C6000C5E74346D9E70000F8B500BFF8BC08BC6B
:104C70009E467047F8B500BFF8BC08BC9E4670471A
:104C8000A0860100400D0300801A060000350C00CC
:104C900040420F0080841E0000093D0000127A008F
:104CA0000024F40000366E010048E801006CDC02CC
:104CB00000000000010203040000000000000000EA
:084CC0000102030406070809C4
:084CC800FEFCFF7F010000006B
:084CD000DD02000800000000F5
:084CD800B90200080000000011
:104CE000850A00088D0A0008950A00089D0A000838
:104CF000A50A0008010000001000000000093D00A6
:084D00000100000000000000AA
:040000050800497531
:00000001FF
